:020000040800F2
:1000000020090020CD0100083D0600083705000842
:100010003906000809040008870D000800000000E8
:10002000000000000000000000000000710900084E
:100030000D04000800000000C50600085D0A000865
:10004000E7010008E7010008E7010008E7010008F0
:10005000E7010008E7010008E7010008E7010008E0
:10006000E7010008E7010008E7010008E7010008D0
:10007000E7010008E7010008E7010008E7010008C0
:10008000E7010008E7010008E7010008E7010008B0
:10009000E7010008E7010008E7010008E7010008A0
:1000A000E7010008E7010008E7010008E701000890
:1000B000C10A0008E7010008E7010008E70100089D
:1000C000E7010008E7010008E7010008E701000870
:1000D000E7010008050B00088D0B0008E701000888
:1000E000E7010008E7010008E7010008E701000850
:1000F000E7010008E7010008E7010008E701000840
:10010000E7010008E7010008E7010008E70100082F
:10011000E7010008E7010008E7010008E70100081F
:10012000E7010008E7010008E7010008E70100080F
:1001300000F002F800F03AF80AA090E8000C8244BF
:100140008344AAF10107DA4501D100F02FF8AFF29C
:10015000090EBAE80F0013F0010F18BFFB1A43F0A5
:1001600001031847D0150000F0150000103A24BF15
:1001700078C878C1FAD8520724BF30C830C144BF0C
:1001800004680C607047000000230024002500264E
:10019000103A28BF78C1FBD8520728BF30C148BFEA
:1001A0000B6070471FB51FBD10B510BD00F0E6F81D
:1001B0001146FFF7F7FF01F099F900F018F903B4C1
:1001C000FFF7F2FF03BC00F0E1FD000009488047A3
:1001D00009480047FEE7FEE7FEE7FEE7FEE7FEE729
:1001E000FEE7FEE7FEE7FEE704480549054A064B41
:1001F00070470000610A0008310100082003002058
:100200002009002020050020200500207047000064
:100210000FB4044910B503AA029800F04FF810BCBF
:100220005DF814FB3C000020032A40F2308010F0FF
:10023000030C00F0158011F8013BBCF1020F624481
:1002400098BF11F801CB00F8013B38BF11F8013B12
:10025000A2F1040298BF00F801CB38BF00F8013BBF
:1002600011F0030300F03C80083AC0F0088051F818
:10027000043B083A51F804CBA0E80810F5E7121D3A
:100280005CBF51F8043B40F8043BAFF30080D20759
:1002900024BF11F8013B11F801CB48BF11F8012B25
:1002A00024BF00F8013B00F801CB48BF00F8012B48
:1002B000704770477047704770470000074B70B534
:1002C0000D467B4400F043F80446284600F052F8FF
:1002D00010B14FF0FF3070BD204670BDFB11000023
:1002E00010B5203AC0F00B80B1E81850203AA0E8D1
:1002F0001850B1E81850A0E81850BFF4F5AF5FEA05
:10030000027C24BFB1E81850A0E8185044BF18C9B7
:1003100018C0BDE810405FEA827C24BF51F8043B5E
:1003200040F8043B08BF7047D20728BF31F8023BB2
:1003300048BF11F8012B28BF20F8023B48BF00F846
:10034000012B704701694A1C02610878704700B5AB
:100350008FB0CDE901310021059105497944CDE9FE
:1003600003101146684600F02EF80FB000BD0000E3
:10037000E5FFFFFF007B00F080007047754600F04E
:100380003FF8AE4605006946534620F00700854613
:1003900018B020B5FFF728FFBDE820404FF0000659
:1003A0004FF000074FF000084FF0000B21F007015D
:1003B000AC46ACE8C009ACE8C009ACE8C009ACE8A0
:1003C000C0098D4670472DE9F04106460024D6E964
:1003D0000170F5688046304603E04146B847641C2A
:1003E0003046A8470028F8D12046BDE8F08110B576
:1003F0000446AFF300802046BDE81040FFF7DFBEA3
:1004000000487047C002002000BFFEE770472DE99A
:10041000F04102460025002600200023002400278A
:1004200091F803C00CF00F0591F803C00CF0100C0C
:10043000BCF1000F03D091F802C04CEA050591F819
:1004400000C0BCF1000F31D0146800202BE04FF049
:10045000010C0CFA00F3B1F800C00CEA03069E424E
:1004600020D183004FF00F0C0CFA03F7BC4305FAC0
:1004700003FC4CEA040491F803C0BCF1280F06D138
:100480004FF0010C0CFA00FCC2F814C00AE091F81D
:1004900003C0BCF1480F05D14FF0010C0CFA00FC71
:1004A000C2F810C0401C0828D1D31460B1F800C0B5
:1004B000BCF1FF0F34DD546800202EE000F1080C81
:1004C0004FF0010808FA0CF3B1F800C00CEA03067B
:1004D0009E4221D183004FF00F0C0CFA03F7BC436E
:1004E00005FA03FC4CEA040491F803C0BCF1280FA0
:1004F00005D100F1080C08FA0CF8C2F8148091F844
:1005000003C0BCF1480F07D100F1080C4FF00108FF
:1005100008FA0CF8C2F81080401C0828CED35460AA
:10052000BDE8F0810246002093680B400BB101202A
:1005300000E00020704700BFFEE7000008B5012181
:10054000042000F0E1F84FF42040ADF8000048200E
:100550008DF8030069460748FFF759FF0120ADF801
:10056000000028208DF8030069460248FFF74FFF7E
:1005700008BD00000008014010B5044614B1012078
:100580002A4908702948007878B34FF40051284868
:10059000FFF7C8FF58B14FF400412548FFF7C2FFED
:1005A00028B101212248FFF7BDFF012826D10A20EA
:1005B00000F0EEFB00201D4908704FF400511C486C
:1005C000FFF7B0FF08B9012010BD4FF400411848F3
:1005D000FFF7A8FF50B91748006808B9012000E0EC
:1005E0000020144908600220EEE707E001211048CE
:1005F000FFF798FF012816D10320E5E74FF40051DB
:100600000B48FFF78FFF01280DD1C1030848FFF702
:1006100089FF012807D101210548FFF783FF10B9A1
:100620000120024908700020CEE7000043000020AE
:1006300000080140A001214200BFFEE77047000012
:1006400070B5002100230F22C47804B3154C246830
:1006500004F4E064C4F5E064210AC1F10403CA4073
:10066000447804FA03F184781440214309010E4CC4
:100670000678A155047804F01F050124AC400578E4
:100680006D11AD0005F1E025C5F8004109E00478E1
:1006900004F01F050124AC40044D0678761145F89E
:1006A000264070BD0CED00E000E400E080E100E0D9
:1006B00002490143024A1160704700000000FA0538
:1006C0000CED00E07047000029B1064AD2690243F0
:1006D000044BDA6104E0034AD2698243014BDA61D8
:1006E000704700000010024029B1064A1269024317
:1006F000044B1A6104E0034A12698243014B1A61F8
:10070000704700000010024029B1064A9269024376
:10071000044B9A6104E0034A92698243014B9A6157
:10072000704700000010024030B500210022002474
:1007300000232D4D6D6805F00C0121B1042905D071
:10074000082923D105E0294D056022E0274D0560E9
:100750001FE0254D6D6805F47012234D6D6805F49A
:100760008034022505EB92421CB9214D55430560AA
:100770000BE01D4D6D6805F400351DB11C4D554352
:10078000056002E0194D5543056002E0174D056014
:1007900000BF00BF144D6D6805F0F0010909154D4B
:1007A0006B5C0568DD4045600F4D6D6805F4E061E8
:1007B000090A104D6B5C4568DD4085600A4D6D6827
:1007C00005F46051C90A0B4D6B5C4568DD40C5609E
:1007D000054D6D6805F44041890B074D6B5CC5689C
:1007E000B5FBF3F5056130BD0010024000127A0040
:1007F00000093D00220000203200002010B586B024
:10080000044601212420FFF77FFF01214804FFF760
:100810005BFF0420ADF8140010208DF817000320B2
:100820008DF8160005A92648FFF7F1FD0420ADF864
:10083000140018208DF8170005A92248FFF7E7FDDE
:100840000820ADF8140004208DF8170005A91D48F4
:10085000FFF7DDFD01214804FFF746FF00214FF4BB
:100860000030FFF741FF01940020ADF80800ADF81B
:100870000A00ADF80C00ADF810000C20ADF80E0029
:1008800001A9114800F00AFA26208DF80000012085
:100890008DF801008DF802008DF803006846FFF71F
:1008A000CFFE012240F22551074800F0D2F9012184
:1008B000054800F08BF900200449086006B010BD1F
:1008C0000014014000080140004400408881224299
:1008D0002DE9F04107460D460E4806780024002019
:1008E00028700A2000F054FA0A48007886420FD196
:1008F00076B100BF04E00848005D3855601CC4B202
:10090000B442F8DB034800782870002001490870E1
:10091000BDE8F081420000205E02002070B505466F
:100920000E4601200F49086000240CE000BF402162
:100930000D4800F057F90028F9D0295D0A4800F069
:100940001EFA601CC4B2B442F0DB00BF402106486E
:1009500000F048F90028F9D0002004490870014946
:10096000086070BD8881224200440040420000209F
:10097000704710B500F002F810BD00000CB5002063
:10098000019000903348006840F48030314908609D
:1009900000BF3048006800F4003000900198401C0F
:1009A0000190009818B90198B0F5A06FF1D12948CD
:1009B000006800F4003010B10120009001E0002038
:1009C00000900098012843D12348006840F01000AF
:1009D000214908600846006820F0030008600846C6
:1009E000006840F0020008601A48406819494860F1
:1009F0000846406848600846406840F480604860A7
:100A00000846406820F47C1048600846406840F47E
:100A1000E81048600846006840F08070086000BF39
:100A20000C48006800F000700028F9D009484068C0
:100A300020F00300074948600846406840F0020083
:100A4000486000BF0348406800F00C000828F9D156
:100A50000CBD000000100240002002407047000062
:100A600010B51348006840F00100114908600846BD
:100A70004068104908400E494860084600680E4921
:100A800008400B4908600846006820F48020086090
:100A90000846406820F4FE0048604FF41F0088605C
:100AA000FFF767FF4FF000600449086010BD0000C9
:100AB000001002400000FFF8FFFFF6FE08ED00E026
:100AC00010B50121880700F00BF828B10121880733
:100AD00000F003F800F074FD10BDCA4302827047B5
:100AE00030B50246002000230024158A05EA0103E0
:100AF000958905EA010413B10CB1012000E0002042
:100B000030BD000010B540F225511D4800F077F8C7
:100B100010B31B4800F02EF9C4B21A48008800F444
:100B20000040C8B91748008800F4804060B10A2C22
:100B300003D000201349088020E01248008840F4C8
:100B400000401049088019E00D2C06D10D4800889E
:100B500040F480400B49088010E00A480088C0F348
:100B60000D0009490C5407480088401C05490880BD
:100B700008460088C72801DD0020088010BD00005D
:100B800000380140400000209601002010B540F2DE
:100B900025510B4800F033F880B1094800F0EAF81D
:100BA000C4B208480078402808DA0748054909789F
:100BB000445404480078401C0249087010BD0000ED
:100BC00000440040420000205E02002021B18289E2
:100BD00042F40052828104E082894DF6FF731A408C
:100BE0008281704702460020B1F5007F00D100BF2E
:100BF00013880B400BB1012000E00020704770B556
:100C00000246002400230025002040F66A16B14267
:100C100000D100BFC1F3421501F01F03012606FAFF
:100C200003F3012D02D19689334006E0022D02D153
:100C3000168A334001E0968A33400C12012606FAE8
:100C400004F41688344013B10CB1012000E00020F8
:100C500070BDF0B50346002400260025002040F6B4
:100C60006A17B94200D100BF1846C1F3421401F01F
:100C70001F06012707FA06F5012C01D10C3004E00C
:100C8000022C01D1103000E014301AB107682F4354
:100C9000076002E00768AF430760F0BD2DE9F04749
:100CA00086B005460E460024A24600BFA146002796
:100CB000B08900B100BF2F462C8A4CF6FF7004406B
:100CC000F08804432C82AC894EF6F3100440B088BF
:100CD00031890843718908430443AC81AC8A4FF6DB
:100CE000FF400440B0890443AC8201A8FFF71CFD1B
:100CF0001F48874202D1DDF810A001E0DDF80CA00A
:100D0000A88900F4004040B10AEBCA0000EB0A10C9
:100D100031684900B0FBF1F807E00AEBCA0000EBCC
:100D20000A1031688900B0FBF1F86420B8FBF0F0DC
:100D300004012009642101FB1089A88900F4004006
:100D400040B1322000EBC900B0FBF1F000F0070029
:100D5000044308E0322000EB09106421B0FBF1F0FD
:100D600000F00F0004432C8106B0BDE8F0870000BE
:100D70000038014001468888C0F308007047C1F37D
:100D800008028280704700BFFEE7704700BF7047CF
:100D90000146114A12884A434FF0E0235A6100226B
:100DA0009A611A46126942F001021A6100BF4FF0BF
:100DB000E022106900F001021AB100F48032002A2A
:100DC000F5D04FF0E022126922F001024FF0E0234B
:100DD0001A6100229A617047380000202DE9F05F07
:100DE00006460D464FF0000B2888052848D170783C
:100DF0004FEA0029B07840EA090909F101001FFA19
:100E000080F9F078040230790443012C35DBB4F525
:100E1000FA6F32DA374600202880012007F8010BEC
:100E20002888401C288004F0070040B12046E117C4
:100E300004EB5171C910491C01F0FF0805E0204680
:100E4000E11704EB5171C1F3C70807F8018B28883B
:100E5000401C2880002322464946384600F04EFABE
:100E60008246BAF1000F04D0504600F097FB83464B
:100E700008E028884044288004E04FF0030B01E09C
:100E80004FF0030B5846BDE8F09F2DE9F05F064692
:100E90000D464FF0000B2888052847D170784FEA9F
:100EA0000029B07840EA090909F101001FFA80F928
:100EB000F078040230790443012C34DBB4F5FA6F86
:100EC00031DA374600202880022007F8010B2888F5
:100ED000401C288004F0070040B12046E11704EBD5
:100EE0005171C910491C01F0FF0805E02046E117C7
:100EF00004EB5171C1F3C70807F8018B2888401C27
:100F0000288022464946384600F046FA8246BAF121
:100F1000000F04D0504600F041FB834608E02888CB
:100F20004044288004E04FF0030B01E04FF0030B36
:100F30005846BDE8F09F2DE9F04705460C464FF0B6
:100F4000000A2088052837D168784FEA0028A87859
:100F500040EA080808F101001FFA80F8E878060264
:100F60002E79012E25DB7D2E23DC2F4600202080CC
:100F7000032007F8010B2088401C20807006000E1B
:100F800007F8010B2088401C208000233246414690
:100F9000384600F031FA8146B9F1000F04D04846D6
:100FA00000F0FCFA824609E0208800EB4600208031
:100FB00004E04FF0030A01E04FF0030A5046BDE899
:100FC000F0872DE9F04705460C464FF0000A2088CF
:100FD000052837D168784FEA0028A87840EA080841
:100FE00008F101001FFA80F8E87806022879064324
:100FF000012E24DB7D2E22DA2F46002020800420C3
:1010000007F8010B2088401C20807006000E07F8AE
:10101000010B2088401C208032464146384600F0B3
:1010200029FA8146B9F1000F04D0484600F0B6FA1B
:10103000824609E0208800EB4600208004E04FF063
:10104000030A01E04FF0030A5046BDE8F0872DE99E
:10105000FC5F04460D460020009028880A285DDBCE
:1010600060784FEA002AA07840EA0A0A0AF10100F3
:101070001FFA80FAE07806022079064360794FEA89
:10108000002BA07940EA0B0B0BF101001FFA80FB4B
:10109000E0790702207A0743607A0190012E3BDB5A
:1010A0007D2E39DC012F37DB792F35DC7900019873
:1010B000814231D101233A46594604F10A0000F039
:1010C0009BF98146B9F1000F1ED1A046002028806F
:1010D000172008F8010B2888401C28807006000E95
:1010E00008F8010B2888401C28800023324651460E
:1010F000404600F081F98146B9F1000F04D12888FB
:10110000022101FB06002880B9F1000F06D04846F5
:1011100000F044FA009001E0032000900098BDE840
:10112000FC9F000070B505460C460648028806493B
:10113000681CFFF779F803480088401C20800020D5
:1011400070BD0000440000209E0200202DE9F843FD
:1011500004460F464FF000083888052829D16078EA
:101160000502A0780543681C85B22079F0B9E078C3
:10117000FF2801D0E078C8B900208DF80100E078A0
:10118000FF2803D101208DF8000002E000208DF837
:10119000000001231A462946684600F0AFF80646CB
:1011A0004EB1304600F0FAF9804604E04FF00308F3
:1011B00001E04FF003084046BDE8F8832DE9F04117
:1011C00004460F464FF000083888052812D1607891
:1011D0000502A0780543681C85B201231A462946FA
:1011E000E01C00F009F9064636B1304600F0D6F9A9
:1011F000804601E04FF003084046BDE8F0812DE94C
:10120000F05F05460E464FF0000B3088052839DDAB
:1012100068780702A8780743781C87B2E878040248
:101220002879044395F805A004F0070040B1204652
:10123000E11704EB5171C910491C01F0FF0805E0EA
:101240002046E11704EB5171C1F3C708012C16DBEE
:10125000B4F5F66F13DCD04511D10123224639468F
:10126000A81D00F04BF88146B9F1000F04D04846A4
:1012700000F094F9834607E00520308004E04FF049
:10128000030B01E04FF0030B5846BDE8F09F2DE93A
:10129000F04704460E464FF0000A3088062828DB47
:1012A00060780702A0780743781C87B2E0780502CF
:1012B0002079054394F80590012D17DB782D15DC76
:1012C0006806000E484511D101232A463946A01D63
:1012D00000F092F88046B8F1000F04D0404600F0CC
:1012E0005DF9824607E00520308004E04FF0030AF4
:1012F00001E04FF0030A5046BDE8F0872DE9F047C2
:1013000005460E46904699464FF0000A0FFA88F4BB
:1013100030B2B0F57A7F38DB06EB0800B0F57E7F9F
:1013200033DCA6F57A7007B2B9F1000F03D0B9F13A
:10133000010F29D115E011E0082C01DD082000E0A3
:101340002046C2B2B9B2134800F092F905F8010B79
:10135000A4F1080004B207F1080007B2002CEBDC8E
:1013600012E00EE015F8013B082C01DD082000E03A
:101370002046C2B2B9B2074800F090F9A4F10800C3
:1013800004B2002CEEDC00BF01E04FF0010A504631
:10139000BDE8F087200000202DE9F04705460C4607
:1013A00016464FF0000937B220B201281CDBA01905
:1013B000972819DC601E1FFA80F812E0082F01DD63
:1013C000082000E03846C2B241460A4800F050F911
:1013D00005F8010BA7F1080007B208F108001FFA91
:1013E00080F8002FEADC01E04FF001094846BDE833
:1013F000F087000000010020F0B504460D460020F3
:101400002EB2002E32DBAE180A2E2FDC2E4631B261
:1014100013B1012B29D112E00EE0154E36F8116000
:10142000361204F8016B124E16F8116004F8016BC5
:101430004E1C31B2561EB2B2002AEEDC15E011E0AD
:1014400014F8017B3E020A4F27F8116014F8016B73
:1014500037F811703E43064F27F811604E1C31B229
:10146000561EB2B2002AEBDC00BF00E00120F0BD46
:101470000C00002030B5034600200DB2B5F57A7F90
:1014800019DB8D18B5F57B7F15DCA1F57A752CB2CB
:101490000EE00A4D35F814502D1203F8015B074D8C
:1014A00015F8145003F8015B651C2CB2551EAAB246
:1014B000002AEEDC00E0012030BD00000200002028
:1014C00070B504460D46E1B20748FFF758FC00BF6F
:1014D0000548008800F040000028F9D0E0B2024939
:1014E000091D0880204670BD003801400EB500245B
:1014F000002500264FF4A060FFF7DAF84FF41650ED
:10150000FFF77CF9FFF71AF84FF4965000F060F8F7
:1015100038E00020FFF730F8C0B202909DF80800D4
:1015200001280DD1002405E03019C0B20DF80400E7
:10153000601CC4B2052CF7DB05216846FFF7EEF905
:1015400002A96846FFF7C4F99DF8080080B19DF82C
:101550000800052801DD05200290002401E0601C40
:10156000C4B29DF808008442F9DB07A0FEF750FEE4
:10157000681CC5B20A20FFF70BFC142D02D1002510
:10158000701CC6B2C5E700006A696573686F756450
:10159000616F7368756A752000000000014621B113
:1015A000012904D0072906D103E0002005E002202C
:1015B00003E0062001E0042000BF00BF70470000E8
:1015C00010B502480068804710BD00006800002088
:1015D00010B586B00446012144F20400FFF794F8E8
:1015E0004FF40070ADF8140003208DF81600182099
:1015F0008DF8170005A91C48FEF709FF4FF480601D
:10160000ADF8140004208DF8170005A91648FEF760
:10161000FEFE25208DF8000001208DF801008DF8D8
:1016200002008DF803006846FFF70AF801940020D5
:10163000ADF80800ADF80A00ADF80C00ADF81000E8
:101640000C20ADF80E0001A90848FFF727FB012286
:1016500040F225510548FFF7FCFA01210348FFF746
:10166000B5FA06B010BD0000000801400038014086
:10167000F0B503460C461546E208A4EBC20087B25B
:101680000120A840401E86B2995C501C185C41EABB
:10169000002139413140C8B2F0BD00002DE9FF5FA3
:1016A00005460E469046DDF80CB0B8F1080F00DC98
:1016B00004E0382213A11BA0FFF767FBF408A6EB98
:1016C000C4001FFA80FA0BFA0AF01FFA80FB01200F
:1016D00000FA08F0401E1FFA80F9A6EBC40009FAD0
:1016E00000F01FFA80F92F5D601C285C47EA002794
:1016F00027EA090040EA0B072F553912601C2954CC
:10170000BDE8FF9F2E2E5C4D4F444255535C6675DD
:101710006E6374696F6E735C6D627574696C732E41
:101720006300000075634E42697473203C3D2038AD
:101730000000000054170008000000200001000015
:101740006C01000854180008000100202008000067
:1017500088010008E803000000000000000000000D
:101760007B148E3F7B140E40B81E55407B148E4078
:1017700020201010000000000000010203040102FC
:101780000304060708090204060800000000000020
:101790000000000000000001000000000000020046
:1017A0000000000000000000000000000000000039
:1017B0000000000000000000000000000000000029
:1017C00000000000000000001100000025110008CA
:1017D00004000000C30F000803000000370F0008DA
:1017E000100000008F12000806000000BD11000864
:1017F000170000004F10000801000000DD0D000878
:10180000050000004D1100080F000000FF11000846
:10181000020000008B0E0008000000000000000025
:1018200000000000000000000000000000000000B8
:1018300000000000000000000000000000000000A8
:101840000000000000000000000000000000000098
:041850000000000094
:04000005080001CD21
:00000001FF
